{
  "contractName": "Random",
  "abi": [
    {
      "anonymous": false,
      "inputs": [
        {
          "indexed": false,
          "internalType": "uint8",
          "name": "i",
          "type": "uint8"
        },
        {
          "indexed": false,
          "internalType": "uint256",
          "name": "result",
          "type": "uint256"
        }
      ],
      "name": "Result",
      "type": "event"
    },
    {
      "constant": false,
      "inputs": [],
      "name": "rand",
      "outputs": [],
      "payable": false,
      "stateMutability": "nonpayable",
      "type": "function"
    }
  ],
  "bytecode": "0x608060405234801561001057600080fd5b5061013c806100206000396000f3fe608060405234801561001057600080fd5b506004361061002b5760003560e01c80633b3dca7614610030575b600080fd5b61003861003a565b005b60004244456040516020018084815260200183815260200182815260200193505050506040516020818303038152906040528051906020012060001c905060008090505b60648160ff16101561010357600d82901b82189150601182901c82189150600582901b821891507f4664cb2823736a28140820d3cf27f51fdbb3718146725f8e59eba530582e318881620f424084816100d357fe5b06604051808360ff1660ff1681526020018281526020019250505060405180910390a1808060010191505061007e565b505056fea265627a7a723158203ad5c817dfc69172fdcefcb6d68cc67fb5a40b6af1a791d88bd894778630bf9664736f6c63430005100032",
  "source": "pragma solidity ^0.5.14;\r\n\r\ncontract Random {\r\n    \r\n    function rand() public {\r\n        uint256 seed = uint256(keccak256(abi.encodePacked(block.timestamp, block.difficulty, block.gaslimit)));\r\n        for(uint8 i = 0; i < 100; i++) {\r\n            seed ^= seed << 13;\r\n        \tseed ^= seed >> 17;\r\n        \tseed ^= seed << 5;\r\n        \temit Result(i, seed % 1000000);\r\n        }\r\n    }\r\n    \r\n    event Result(uint8 i, uint256 result);\r\n}",
  "sourcePath": "E:/Desktop/blockchain-lotto/contracts/Random.sol",
  "compiler": {
    "name": "solc",
    "version": "0.5.16+commit.9c3226ce.Emscripten.clang"
  },
  "schemaVersion": "3.0.22",
  "updatedAt": "2020-01-27T20:19:30.004Z",
  "networkType": "ethereum",
  "devdoc": {
    "methods": {}
  },
  "userdoc": {
    "methods": {}
  }
}